{
  "_format": "hh-sol-artifact-1",
  "contractName": "PtDemoDinosaur",
  "sourceName": "contracts/PtDemoDinosaur.sol",
  "abi": [
    {
      "inputs": [
        {
          "internalType": "string",
          "name": "_initBaseURI",
          "type": "string"
        },
        {
          "internalType": "string",
          "name": "_initNotRevealedUri",
          "type": "string"
        }
      ],
      "stateMutability": "nonpayable",
      "type": "constructor"
    },
    {
      "anonymous": false,
      "inputs": [
        {
          "indexed": true,
          "internalType": "address",
          "name": "owner",
          "type": "address"
        },
        {
          "indexed": true,
          "internalType": "address",
          "name": "approved",
          "type": "address"
        },
        {
          "indexed": true,
          "internalType": "uint256",
          "name": "tokenId",
          "type": "uint256"
        }
      ],
      "name": "Approval",
      "type": "event"
    },
    {
      "anonymous": false,
      "inputs": [
        {
          "indexed": true,
          "internalType": "address",
          "name": "owner",
          "type": "address"
        },
        {
          "indexed": true,
          "internalType": "address",
          "name": "operator",
          "type": "address"
        },
        {
          "indexed": false,
          "internalType": "bool",
          "name": "approved",
          "type": "bool"
        }
      ],
      "name": "ApprovalForAll",
      "type": "event"
    },
    {
      "anonymous": false,
      "inputs": [
        {
          "indexed": false,
          "internalType": "string",
          "name": "_baseURI",
          "type": "string"
        }
      ],
      "name": "ChangeBaseURI",
      "type": "event"
    },
    {
      "anonymous": false,
      "inputs": [
        {
          "indexed": false,
          "internalType": "bool",
          "name": "_isBurnEnabled",
          "type": "bool"
        }
      ],
      "name": "ChangeIsBurnEnabled",
      "type": "event"
    },
    {
      "anonymous": false,
      "inputs": [
        {
          "indexed": false,
          "internalType": "uint256",
          "name": "_startTime",
          "type": "uint256"
        },
        {
          "indexed": false,
          "internalType": "uint256",
          "name": "_duration",
          "type": "uint256"
        },
        {
          "indexed": false,
          "internalType": "uint256",
          "name": "_maxCount",
          "type": "uint256"
        }
      ],
      "name": "ChangePresaleConfig",
      "type": "event"
    },
    {
      "anonymous": false,
      "inputs": [
        {
          "indexed": false,
          "internalType": "uint256",
          "name": "_startTime",
          "type": "uint256"
        },
        {
          "indexed": false,
          "internalType": "uint256",
          "name": "_maxCount",
          "type": "uint256"
        }
      ],
      "name": "ChangeSaleConfig",
      "type": "event"
    },
    {
      "anonymous": false,
      "inputs": [
        {
          "indexed": true,
          "internalType": "contract IERC20",
          "name": "token",
          "type": "address"
        },
        {
          "indexed": false,
          "internalType": "address",
          "name": "to",
          "type": "address"
        },
        {
          "indexed": false,
          "internalType": "uint256",
          "name": "amount",
          "type": "uint256"
        }
      ],
      "name": "ERC20PaymentReleased",
      "type": "event"
    },
    {
      "anonymous": false,
      "inputs": [
        {
          "indexed": true,
          "internalType": "address",
          "name": "previousOwner",
          "type": "address"
        },
        {
          "indexed": true,
          "internalType": "address",
          "name": "newOwner",
          "type": "address"
        }
      ],
      "name": "OwnershipTransferred",
      "type": "event"
    },
    {
      "anonymous": false,
      "inputs": [
        {
          "indexed": false,
          "internalType": "address",
          "name": "account",
          "type": "address"
        },
        {
          "indexed": false,
          "internalType": "uint256",
          "name": "shares",
          "type": "uint256"
        }
      ],
      "name": "PayeeAdded",
      "type": "event"
    },
    {
      "anonymous": false,
      "inputs": [
        {
          "indexed": false,
          "internalType": "address",
          "name": "from",
          "type": "address"
        },
        {
          "indexed": false,
          "internalType": "uint256",
          "name": "amount",
          "type": "uint256"
        }
      ],
      "name": "PaymentReceived",
      "type": "event"
    },
    {
      "anonymous": false,
      "inputs": [
        {
          "indexed": false,
          "internalType": "address",
          "name": "to",
          "type": "address"
        },
        {
          "indexed": false,
          "internalType": "uint256",
          "name": "amount",
          "type": "uint256"
        }
      ],
      "name": "PaymentReleased",
      "type": "event"
    },
    {
      "anonymous": false,
      "inputs": [
        {
          "indexed": true,
          "internalType": "address",
          "name": "_minter",
          "type": "address"
        },
        {
          "indexed": false,
          "internalType": "uint256",
          "name": "_amount",
          "type": "uint256"
        },
        {
          "indexed": false,
          "internalType": "uint256",
          "name": "_price",
          "type": "uint256"
        }
      ],
      "name": "PresaleMint",
      "type": "event"
    },
    {
      "anonymous": false,
      "inputs": [
        {
          "indexed": true,
          "internalType": "address",
          "name": "_recipient",
          "type": "address"
        },
        {
          "indexed": false,
          "internalType": "uint256",
          "name": "_amount",
          "type": "uint256"
        }
      ],
      "name": "ReserveMint",
      "type": "event"
    },
    {
      "anonymous": false,
      "inputs": [
        {
          "indexed": true,
          "internalType": "address",
          "name": "_minter",
          "type": "address"
        },
        {
          "indexed": false,
          "internalType": "uint256",
          "name": "_amount",
          "type": "uint256"
        },
        {
          "indexed": false,
          "internalType": "uint256",
          "name": "_price",
          "type": "uint256"
        }
      ],
      "name": "SaleMint",
      "type": "event"
    },
    {
      "anonymous": false,
      "inputs": [
        {
          "indexed": true,
          "internalType": "address",
          "name": "from",
          "type": "address"
        },
        {
          "indexed": true,
          "internalType": "address",
          "name": "to",
          "type": "address"
        },
        {
          "indexed": true,
          "internalType": "uint256",
          "name": "tokenId",
          "type": "uint256"
        }
      ],
      "name": "Transfer",
      "type": "event"
    },
    {
      "anonymous": false,
      "inputs": [
        {
          "indexed": false,
          "internalType": "enum PtDemoDinosaur.WorkflowStatus",
          "name": "previousStatus",
          "type": "uint8"
        },
        {
          "indexed": false,
          "internalType": "enum PtDemoDinosaur.WorkflowStatus",
          "name": "newStatus",
          "type": "uint8"
        }
      ],
      "name": "WorkflowStatusChange",
      "type": "event"
    },
    {
      "inputs": [],
      "name": "MAXSUPPLY",
      "outputs": [
        {
          "internalType": "uint256",
          "name": "",
          "type": "uint256"
        }
      ],
      "stateMutability": "view",
      "type": "function"
    },
    {
      "inputs": [],
      "name": "MAX_SELF_MINT",
      "outputs": [
        {
          "internalType": "uint256",
          "name": "",
          "type": "uint256"
        }
      ],
      "stateMutability": "view",
      "type": "function"
    },
    {
      "inputs": [],
      "name": "RESERVE_NFT_LIMIT",
      "outputs": [
        {
          "internalType": "uint256",
          "name": "",
          "type": "uint256"
        }
      ],
      "stateMutability": "view",
      "type": "function"
    },
    {
      "inputs": [],
      "name": "allowedReserveLimit",
      "outputs": [
        {
          "internalType": "uint256",
          "name": "",
          "type": "uint256"
        }
      ],
      "stateMutability": "pure",
      "type": "function"
    },
    {
      "inputs": [
        {
          "internalType": "address",
          "name": "to",
          "type": "address"
        },
        {
          "internalType": "uint256",
          "name": "tokenId",
          "type": "uint256"
        }
      ],
      "name": "approve",
      "outputs": [],
      "stateMutability": "nonpayable",
      "type": "function"
    },
    {
      "inputs": [
        {
          "internalType": "address",
          "name": "owner",
          "type": "address"
        }
      ],
      "name": "balanceOf",
      "outputs": [
        {
          "internalType": "uint256",
          "name": "",
          "type": "uint256"
        }
      ],
      "stateMutability": "view",
      "type": "function"
    },
    {
      "inputs": [],
      "name": "baseURI",
      "outputs": [
        {
          "internalType": "string",
          "name": "",
          "type": "string"
        }
      ],
      "stateMutability": "view",
      "type": "function"
    },
    {
      "inputs": [
        {
          "internalType": "uint256",
          "name": "tokenId",
          "type": "uint256"
        }
      ],
      "name": "getApproved",
      "outputs": [
        {
          "internalType": "address",
          "name": "",
          "type": "address"
        }
      ],
      "stateMutability": "view",
      "type": "function"
    },
    {
      "inputs": [],
      "name": "getPrice",
      "outputs": [
        {
          "internalType": "uint256",
          "name": "",
          "type": "uint256"
        }
      ],
      "stateMutability": "view",
      "type": "function"
    },
    {
      "inputs": [],
      "name": "getSaleStatus",
      "outputs": [
        {
          "internalType": "enum PtDemoDinosaur.WorkflowStatus",
          "name": "",
          "type": "uint8"
        }
      ],
      "stateMutability": "view",
      "type": "function"
    },
    {
      "inputs": [
        {
          "internalType": "address",
          "name": "owner",
          "type": "address"
        },
        {
          "internalType": "address",
          "name": "operator",
          "type": "address"
        }
      ],
      "name": "isApprovedForAll",
      "outputs": [
        {
          "internalType": "bool",
          "name": "",
          "type": "bool"
        }
      ],
      "stateMutability": "view",
      "type": "function"
    },
    {
      "inputs": [],
      "name": "name",
      "outputs": [
        {
          "internalType": "string",
          "name": "",
          "type": "string"
        }
      ],
      "stateMutability": "view",
      "type": "function"
    },
    {
      "inputs": [],
      "name": "notRevealedUri",
      "outputs": [
        {
          "internalType": "string",
          "name": "",
          "type": "string"
        }
      ],
      "stateMutability": "view",
      "type": "function"
    },
    {
      "inputs": [],
      "name": "owner",
      "outputs": [
        {
          "internalType": "address",
          "name": "",
          "type": "address"
        }
      ],
      "stateMutability": "view",
      "type": "function"
    },
    {
      "inputs": [
        {
          "internalType": "uint256",
          "name": "tokenId",
          "type": "uint256"
        }
      ],
      "name": "ownerOf",
      "outputs": [
        {
          "internalType": "address",
          "name": "",
          "type": "address"
        }
      ],
      "stateMutability": "view",
      "type": "function"
    },
    {
      "inputs": [
        {
          "internalType": "uint256",
          "name": "index",
          "type": "uint256"
        }
      ],
      "name": "payee",
      "outputs": [
        {
          "internalType": "address",
          "name": "",
          "type": "address"
        }
      ],
      "stateMutability": "view",
      "type": "function"
    },
    {
      "inputs": [
        {
          "internalType": "bytes32",
          "name": "messageHash",
          "type": "bytes32"
        },
        {
          "internalType": "bytes",
          "name": "signature",
          "type": "bytes"
        }
      ],
      "name": "presaleMint",
      "outputs": [],
      "stateMutability": "payable",
      "type": "function"
    },
    {
      "inputs": [],
      "name": "privateSalePrice",
      "outputs": [
        {
          "internalType": "uint256",
          "name": "",
          "type": "uint256"
        }
      ],
      "stateMutability": "pure",
      "type": "function"
    },
    {
      "inputs": [],
      "name": "publicSaleLimit",
      "outputs": [
        {
          "internalType": "uint256",
          "name": "",
          "type": "uint256"
        }
      ],
      "stateMutability": "pure",
      "type": "function"
    },
    {
      "inputs": [
        {
          "internalType": "uint256",
          "name": "amount",
          "type": "uint256"
        }
      ],
      "name": "publicSaleMint",
      "outputs": [],
      "stateMutability": "payable",
      "type": "function"
    },
    {
      "inputs": [
        {
          "internalType": "address payable",
          "name": "account",
          "type": "address"
        }
      ],
      "name": "release",
      "outputs": [],
      "stateMutability": "nonpayable",
      "type": "function"
    },
    {
      "inputs": [
        {
          "internalType": "contract IERC20",
          "name": "token",
          "type": "address"
        },
        {
          "internalType": "address",
          "name": "account",
          "type": "address"
        }
      ],
      "name": "release",
      "outputs": [],
      "stateMutability": "nonpayable",
      "type": "function"
    },
    {
      "inputs": [
        {
          "internalType": "contract IERC20",
          "name": "token",
          "type": "address"
        },
        {
          "internalType": "address",
          "name": "account",
          "type": "address"
        }
      ],
      "name": "released",
      "outputs": [
        {
          "internalType": "uint256",
          "name": "",
          "type": "uint256"
        }
      ],
      "stateMutability": "view",
      "type": "function"
    },
    {
      "inputs": [
        {
          "internalType": "address",
          "name": "account",
          "type": "address"
        }
      ],
      "name": "released",
      "outputs": [
        {
          "internalType": "uint256",
          "name": "",
          "type": "uint256"
        }
      ],
      "stateMutability": "view",
      "type": "function"
    },
    {
      "inputs": [],
      "name": "renounceOwnership",
      "outputs": [],
      "stateMutability": "nonpayable",
      "type": "function"
    },
    {
      "inputs": [
        {
          "internalType": "uint256",
          "name": "_mintAmount",
          "type": "uint256"
        }
      ],
      "name": "reserve",
      "outputs": [],
      "stateMutability": "nonpayable",
      "type": "function"
    },
    {
      "inputs": [],
      "name": "reserveCount",
      "outputs": [
        {
          "internalType": "uint256",
          "name": "",
          "type": "uint256"
        }
      ],
      "stateMutability": "view",
      "type": "function"
    },
    {
      "inputs": [],
      "name": "resetReveal",
      "outputs": [],
      "stateMutability": "nonpayable",
      "type": "function"
    },
    {
      "inputs": [],
      "name": "reveal",
      "outputs": [],
      "stateMutability": "nonpayable",
      "type": "function"
    },
    {
      "inputs": [],
      "name": "revealed",
      "outputs": [
        {
          "internalType": "bool",
          "name": "",
          "type": "bool"
        }
      ],
      "stateMutability": "view",
      "type": "function"
    },
    {
      "inputs": [
        {
          "internalType": "address",
          "name": "from",
          "type": "address"
        },
        {
          "internalType": "address",
          "name": "to",
          "type": "address"
        },
        {
          "internalType": "uint256",
          "name": "tokenId",
          "type": "uint256"
        }
      ],
      "name": "safeTransferFrom",
      "outputs": [],
      "stateMutability": "nonpayable",
      "type": "function"
    },
    {
      "inputs": [
        {
          "internalType": "address",
          "name": "from",
          "type": "address"
        },
        {
          "internalType": "address",
          "name": "to",
          "type": "address"
        },
        {
          "internalType": "uint256",
          "name": "tokenId",
          "type": "uint256"
        },
        {
          "internalType": "bytes",
          "name": "_data",
          "type": "bytes"
        }
      ],
      "name": "safeTransferFrom",
      "outputs": [],
      "stateMutability": "nonpayable",
      "type": "function"
    },
    {
      "inputs": [],
      "name": "saleConfig",
      "outputs": [
        {
          "internalType": "uint256",
          "name": "startTime",
          "type": "uint256"
        },
        {
          "internalType": "uint256",
          "name": "duration",
          "type": "uint256"
        }
      ],
      "stateMutability": "view",
      "type": "function"
    },
    {
      "inputs": [
        {
          "internalType": "address",
          "name": "operator",
          "type": "address"
        },
        {
          "internalType": "bool",
          "name": "approved",
          "type": "bool"
        }
      ],
      "name": "setApprovalForAll",
      "outputs": [],
      "stateMutability": "nonpayable",
      "type": "function"
    },
    {
      "inputs": [
        {
          "internalType": "string",
          "name": "_newBaseURI",
          "type": "string"
        }
      ],
      "name": "setBaseURI",
      "outputs": [],
      "stateMutability": "nonpayable",
      "type": "function"
    },
    {
      "inputs": [
        {
          "internalType": "string",
          "name": "_notRevealedURI",
          "type": "string"
        }
      ],
      "name": "setNotRevealedURI",
      "outputs": [],
      "stateMutability": "nonpayable",
      "type": "function"
    },
    {
      "inputs": [
        {
          "internalType": "address",
          "name": "_newAddress",
          "type": "address"
        }
      ],
      "name": "setSignerAddress",
      "outputs": [],
      "stateMutability": "nonpayable",
      "type": "function"
    },
    {
      "inputs": [],
      "name": "setUpPresale",
      "outputs": [],
      "stateMutability": "nonpayable",
      "type": "function"
    },
    {
      "inputs": [],
      "name": "setUpSale",
      "outputs": [],
      "stateMutability": "nonpayable",
      "type": "function"
    },
    {
      "inputs": [
        {
          "internalType": "address",
          "name": "account",
          "type": "address"
        }
      ],
      "name": "shares",
      "outputs": [
        {
          "internalType": "uint256",
          "name": "",
          "type": "uint256"
        }
      ],
      "stateMutability": "view",
      "type": "function"
    },
    {
      "inputs": [
        {
          "internalType": "bytes4",
          "name": "interfaceId",
          "type": "bytes4"
        }
      ],
      "name": "supportsInterface",
      "outputs": [
        {
          "internalType": "bool",
          "name": "",
          "type": "bool"
        }
      ],
      "stateMutability": "view",
      "type": "function"
    },
    {
      "inputs": [],
      "name": "symbol",
      "outputs": [
        {
          "internalType": "string",
          "name": "",
          "type": "string"
        }
      ],
      "stateMutability": "view",
      "type": "function"
    },
    {
      "inputs": [
        {
          "internalType": "uint256",
          "name": "index",
          "type": "uint256"
        }
      ],
      "name": "tokenByIndex",
      "outputs": [
        {
          "internalType": "uint256",
          "name": "",
          "type": "uint256"
        }
      ],
      "stateMutability": "view",
      "type": "function"
    },
    {
      "inputs": [
        {
          "internalType": "address",
          "name": "owner",
          "type": "address"
        },
        {
          "internalType": "uint256",
          "name": "index",
          "type": "uint256"
        }
      ],
      "name": "tokenOfOwnerByIndex",
      "outputs": [
        {
          "internalType": "uint256",
          "name": "",
          "type": "uint256"
        }
      ],
      "stateMutability": "view",
      "type": "function"
    },
    {
      "inputs": [
        {
          "internalType": "uint256",
          "name": "tokenId",
          "type": "uint256"
        }
      ],
      "name": "tokenURI",
      "outputs": [
        {
          "internalType": "string",
          "name": "",
          "type": "string"
        }
      ],
      "stateMutability": "view",
      "type": "function"
    },
    {
      "inputs": [
        {
          "internalType": "address",
          "name": "",
          "type": "address"
        }
      ],
      "name": "tokensPerWallet",
      "outputs": [
        {
          "internalType": "uint256",
          "name": "",
          "type": "uint256"
        }
      ],
      "stateMutability": "view",
      "type": "function"
    },
    {
      "inputs": [
        {
          "internalType": "contract IERC20",
          "name": "token",
          "type": "address"
        }
      ],
      "name": "totalReleased",
      "outputs": [
        {
          "internalType": "uint256",
          "name": "",
          "type": "uint256"
        }
      ],
      "stateMutability": "view",
      "type": "function"
    },
    {
      "inputs": [],
      "name": "totalReleased",
      "outputs": [
        {
          "internalType": "uint256",
          "name": "",
          "type": "uint256"
        }
      ],
      "stateMutability": "view",
      "type": "function"
    },
    {
      "inputs": [],
      "name": "totalShares",
      "outputs": [
        {
          "internalType": "uint256",
          "name": "",
          "type": "uint256"
        }
      ],
      "stateMutability": "view",
      "type": "function"
    },
    {
      "inputs": [],
      "name": "totalSupply",
      "outputs": [
        {
          "internalType": "uint256",
          "name": "",
          "type": "uint256"
        }
      ],
      "stateMutability": "view",
      "type": "function"
    },
    {
      "inputs": [
        {
          "internalType": "address",
          "name": "from",
          "type": "address"
        },
        {
          "internalType": "address",
          "name": "to",
          "type": "address"
        },
        {
          "internalType": "uint256",
          "name": "tokenId",
          "type": "uint256"
        }
      ],
      "name": "transferFrom",
      "outputs": [],
      "stateMutability": "nonpayable",
      "type": "function"
    },
    {
      "inputs": [
        {
          "internalType": "address",
          "name": "newOwner",
          "type": "address"
        }
      ],
      "name": "transferOwnership",
      "outputs": [],
      "stateMutability": "nonpayable",
      "type": "function"
    },
    {
      "inputs": [],
      "name": "workflow",
      "outputs": [
        {
          "internalType": "enum PtDemoDinosaur.WorkflowStatus",
          "name": "",
          "type": "uint8"
        }
      ],
      "stateMutability": "view",
      "type": "function"
    },
    {
      "stateMutability": "payable",
      "type": "receive"
    }
  ],
  "bytecode": "0x601480546001600160a01b0319167336e613368f927f7f003bea06bd0f86405bd98bfa9081179091556018805460ff1916905560e0604052608090815273eb8975c9ffd46b2381c33b5a51d6a6f4c1819b6b60a0527367ac2e737e6005223ad6d2b048f37eaceae1caf460c0526200007c90601d90600362000748565b506040805160608101825260328152601e60208201819052601492820192909252620000ab91906003620007b2565b50348015620000b957600080fd5b5060405162005a5838038062005a58833981016040819052620000dc9162000956565b601d8054806020026020016040519081016040528092919081815260200182805480156200013457602002820191906000526020600020905b81546001600160a01b0316815260019091019060200180831162000115575b5050505050601e8054806020026020016040519081016040528092919081815260200182805480156200018757602002820191906000526020600020905b81548152602001906001019080831162000172575b5050604080518082018252600e81526d283a2232b6b7a234b737b9b0bab960911b6020808301918252835180850190945260048452631415111160e21b908401528151919550919350620001e0925060009190620007f5565b508051620001f6906001906020840190620007f5565b50505080518251146200026b5760405162461bcd60e51b815260206004820152603260248201527f5061796d656e7453706c69747465723a2070617965657320616e6420736861726044820152710cae640d8cadccee8d040dad2e6dac2e8c6d60731b60648201526084015b60405180910390fd5b6000825111620002be5760405162461bcd60e51b815260206004820152601a60248201527f5061796d656e7453706c69747465723a206e6f20706179656573000000000000604482015260640162000262565b60005b82518110156200032a5762000315838281518110620002e457620002e4620009c0565b6020026020010151838381518110620003015762000301620009c0565b60200260200101516200038060201b60201c565b806200032181620009ec565b915050620002c1565b50505062000347620003416200056e60201b60201c565b62000572565b60016012556200035733620005c4565b6018805461ff00191690556200036d8262000684565b6200037881620006e8565b505062000a62565b6001600160a01b038216620003ed5760405162461bcd60e51b815260206004820152602c60248201527f5061796d656e7453706c69747465723a206163636f756e74206973207468652060448201526b7a65726f206164647265737360a01b606482015260840162000262565b600081116200043f5760405162461bcd60e51b815260206004820152601d60248201527f5061796d656e7453706c69747465723a20736861726573206172652030000000604482015260640162000262565b6001600160a01b0382166000908152600c602052604090205415620004bb5760405162461bcd60e51b815260206004820152602b60248201527f5061796d656e7453706c69747465723a206163636f756e7420616c726561647960448201526a206861732073686172657360a81b606482015260840162000262565b600e8054600181019091557fbb7b4a454dc3493923482f07822329ed19e8244eff582cc204f8554c3620c3fd0180546001600160a01b0319166001600160a01b0384169081179091556000908152600c60205260409020819055600a546200052590829062000a0a565b600a55604080516001600160a01b0384168152602081018390527f40c340f65e17194d14ddddb073d3c9f888e3cb52b5aae0c6c7706b4fbc905fac910160405180910390a15050565b3390565b601180546001600160a01b038381166001600160a01b0319831681179093556040519116919082907f8be0079c531659141344cd1fd0a4f28419497f9722a3daafe3b4186f6b6457e090600090a35050565b6011546001600160a01b031633146200060f5760405162461bcd60e51b8152602060048201819052602482015260008051602062005a38833981519152604482015260640162000262565b6001600160a01b038116620006765760405162461bcd60e51b815260206004820152602660248201527f4f776e61626c653a206e6577206f776e657220697320746865207a65726f206160448201526564647265737360d01b606482015260840162000262565b620006818162000572565b50565b6011546001600160a01b03163314620006cf5760405162461bcd60e51b8152602060048201819052602482015260008051602062005a38833981519152604482015260640162000262565b8051620006e4906016906020840190620007f5565b5050565b6011546001600160a01b03163314620007335760405162461bcd60e51b8152602060048201819052602482015260008051602062005a38833981519152604482015260640162000262565b8051620006e4906017906020840190620007f5565b828054828255906000526020600020908101928215620007a0579160200282015b82811115620007a057825182546001600160a01b0319166001600160a01b0390911617825560209092019160019091019062000769565b50620007ae92915062000872565b5090565b828054828255906000526020600020908101928215620007a0579160200282015b82811115620007a0578251829060ff16905591602001919060010190620007d3565b828054620008039062000a25565b90600052602060002090601f016020900481019282620008275760008555620007a0565b82601f106200084257805160ff1916838001178555620007a0565b82800160010185558215620007a0579182015b82811115620007a057825182559160200191906001019062000855565b5b80821115620007ae576000815560010162000873565b634e487b7160e01b600052604160045260246000fd5b600082601f830112620008b157600080fd5b81516001600160401b0380821115620008ce57620008ce62000889565b604051601f8301601f19908116603f01168101908282118183101715620008f957620008f962000889565b816040528381526020925086838588010111156200091657600080fd5b600091505b838210156200093a57858201830151818301840152908201906200091b565b838211156200094c5760008385830101525b9695505050505050565b600080604083850312156200096a57600080fd5b82516001600160401b03808211156200098257600080fd5b62000990868387016200089f565b93506020850151915080821115620009a757600080fd5b50620009b6858286016200089f565b9150509250929050565b634e487b7160e01b600052603260045260246000fd5b634e487b7160e01b600052601160045260246000fd5b600060001982141562000a035762000a03620009d6565b5060010190565b6000821982111562000a205762000a20620009d6565b500190565b600181811c9082168062000a3a57607f821691505b6020821081141562000a5c57634e487b7160e01b600052602260045260246000fd5b50919050565b614fc68062000a726000396000f3fe60806040526004361061034e5760003560e01c8063715018a6116101bb578063a3344125116100f7578063ce7c2ac211610095578063e985e9c51161006f578063e985e9c5146109f7578063f2c4ce1e14610a4d578063f2fde38b14610a6d578063f560d41514610a8d57600080fd5b8063ce7c2ac21461095c578063d79779b21461099f578063e33b7de3146109e257600080fd5b8063b3ab66b0116100d1578063b3ab66b0146108f4578063b88d4fde14610907578063c87b56dd14610927578063cb722b971461094757600080fd5b8063a334412514610893578063a475b5dd146108b2578063aedd0a96146108c757600080fd5b80638c3c4b341161016457806395d89b411161013e57806395d89b41146108065780639852595c1461081b57806398d5fdca1461085e578063a22cb4651461087357600080fd5b80638c3c4b34146107855780638da5cb5b146107ab57806390aa0b0f146107d657600080fd5b80637aa4f193116101955780637aa4f19314610732578063819b25ba146107455780638b83209b1461076557600080fd5b8063715018a6146106f3578063758b4e861461070857806379f185ff1461071d57600080fd5b80632f745c591161028a57806351830227116102335780636c0360eb1161020d5780636c0360eb146106955780636d372b32146106aa5780636e3de87c146106bf57806370a08231146106d357600080fd5b8063518302271461063b57806355f804b3146106555780636352211e1461067557600080fd5b806342842e0e1161026457806342842e0e146105db57806348b75044146105fb5780634f6ccce71461061b57600080fd5b80632f745c59146105535780633a98ef3914610573578063406072a91461058857600080fd5b806315c316fc116102f757806319165587116102d157806319165587146104ea5780631f2898c31461050a57806323b872dd1461051f5780632754a2a11461053f57600080fd5b806315c316fc1461049c57806316317c21146104b157806318160ddd146104d557600080fd5b8063081812fc11610328578063081812fc14610422578063081c8c4414610467578063095ea7b31461047c57600080fd5b806301ffc9a7146103a9578063046dc166146103de57806306fdde031461040057600080fd5b366103a4577f6ef95f06320e7a25a04a175ca677b7052bdd97131872c2192525a629f51be770336040805173ffffffffffffffffffffffffffffffffffffffff90921682523460208301520160405180910390a1005b600080fd5b3480156103b557600080fd5b506103c96103c436600461482f565b610aa7565b60405190151581526020015b60405180910390f35b3480156103ea57600080fd5b506103fe6103f936600461486e565b610b03565b005b34801561040c57600080fd5b50610415610c4d565b6040516103d59190614901565b34801561042e57600080fd5b5061044261043d366004614914565b610cdf565b60405173ffffffffffffffffffffffffffffffffffffffff90911681526020016103d5565b34801561047357600080fd5b50610415610db9565b34801561048857600080fd5b506103fe61049736600461492d565b610e47565b3480156104a857600080fd5b506103fe610fd4565b3480156104bd57600080fd5b506104c760155481565b6040519081526020016103d5565b3480156104e157600080fd5b506008546104c7565b3480156104f657600080fd5b506103fe61050536600461486e565b611083565b34801561051657600080fd5b506103fe6112c5565b34801561052b57600080fd5b506103fe61053a366004614959565b61140f565b34801561054b57600080fd5b5060066104c7565b34801561055f57600080fd5b506104c761056e36600461492d565b6114b0565b34801561057f57600080fd5b50600a546104c7565b34801561059457600080fd5b506104c76105a336600461499a565b73ffffffffffffffffffffffffffffffffffffffff918216600090815260106020908152604080832093909416825291909152205490565b3480156105e757600080fd5b506103fe6105f6366004614959565b61157f565b34801561060757600080fd5b506103fe61061636600461499a565b61159a565b34801561062757600080fd5b506104c7610636366004614914565b6118d6565b34801561064757600080fd5b506018546103c99060ff1681565b34801561066157600080fd5b506103fe610670366004614a96565b611994565b34801561068157600080fd5b50610442610690366004614914565b611a2c565b3480156106a157600080fd5b50610415611ade565b3480156106b657600080fd5b506104c7600a81565b3480156106cb57600080fd5b50601e6104c7565b3480156106df57600080fd5b506104c76106ee36600461486e565b611aeb565b3480156106ff57600080fd5b506103fe611bb9565b34801561071457600080fd5b506104c7601e81565b34801561072957600080fd5b506104c7600681565b6103fe610740366004614adf565b611c46565b34801561075157600080fd5b506103fe610760366004614914565b611fdc565b34801561077157600080fd5b50610442610780366004614914565b612210565b34801561079157600080fd5b50601854610100900460ff165b6040516103d59190614bc5565b3480156107b757600080fd5b5060115473ffffffffffffffffffffffffffffffffffffffff16610442565b3480156107e257600080fd5b50601954601a546107f1919082565b604080519283526020830191909152016103d5565b34801561081257600080fd5b5061041561224d565b34801561082757600080fd5b506104c761083636600461486e565b73ffffffffffffffffffffffffffffffffffffffff166000908152600d602052604090205490565b34801561086a57600080fd5b506104c761225c565b34801561087f57600080fd5b506103fe61088e366004614be1565b612322565b34801561089f57600080fd5b5060185461079e90610100900460ff1681565b3480156108be57600080fd5b506103fe61232d565b3480156108d357600080fd5b506104c76108e236600461486e565b601c6020526000908152604090205481565b6103fe610902366004614914565b6123db565b34801561091357600080fd5b506103fe610922366004614c0f565b612882565b34801561093357600080fd5b50610415610942366004614914565b61292a565b34801561095357600080fd5b506103fe612aa8565b34801561096857600080fd5b506104c761097736600461486e565b73ffffffffffffffffffffffffffffffffffffffff166000908152600c602052604090205490565b3480156109ab57600080fd5b506104c76109ba36600461486e565b73ffffffffffffffffffffffffffffffffffffffff166000908152600f602052604090205490565b3480156109ee57600080fd5b50600b546104c7565b348015610a0357600080fd5b506103c9610a1236600461499a565b73ffffffffffffffffffffffffffffffffffffffff918216600090815260056020908152604080832093909416825291909152205460ff1690565b348015610a5957600080fd5b506103fe610a68366004614a96565b612b53565b348015610a7957600080fd5b506103fe610a8836600461486e565b612be7565b348015610a9957600080fd5b50660aa87bee5380006104c7565b60007fffffffff0000000000000000000000000000000000000000000000000000000082167f780e9d63000000000000000000000000000000000000000000000000000000001480610afd5750610afd82612d17565b92915050565b60115473ffffffffffffffffffffffffffffffffffffffff163314610b89576040517f08c379a000000000000000000000000000000000000000000000000000000000815260206004820181905260248201527f4f776e61626c653a2063616c6c6572206973206e6f7420746865206f776e657260448201526064015b60405180910390fd5b73ffffffffffffffffffffffffffffffffffffffff8116610c06576040517f08c379a000000000000000000000000000000000000000000000000000000000815260206004820152601360248201527f43414e27542050555420302041444452455353000000000000000000000000006044820152606401610b80565b601480547fffffffffffffffffffffffff00000000000000000000000000000000000000001673ffffffffffffffffffffffffffffffffffffffff92909216919091179055565b606060008054610c5c90614c8f565b80601f0160208091040260200160405190810160405280929190818152602001828054610c8890614c8f565b8015610cd55780601f10610caa57610100808354040283529160200191610cd5565b820191906000526020600020905b815481529060010190602001808311610cb857829003601f168201915b5050505050905090565b60008181526002602052604081205473ffffffffffffffffffffffffffffffffffffffff16610d90576040517f08c379a000000000000000000000000000000000000000000000000000000000815260206004820152602c60248201527f4552433732313a20617070726f76656420717565727920666f72206e6f6e657860448201527f697374656e7420746f6b656e00000000000000000000000000000000000000006064820152608401610b80565b5060009081526004602052604090205473ffffffffffffffffffffffffffffffffffffffff1690565b60178054610dc690614c8f565b80601f0160208091040260200160405190810160405280929190818152602001828054610df290614c8f565b8015610e3f5780601f10610e1457610100808354040283529160200191610e3f565b820191906000526020600020905b815481529060010190602001808311610e2257829003601f168201915b505050505081565b6000610e5282611a2c565b90508073ffffffffffffffffffffffffffffffffffffffff168373ffffffffffffffffffffffffffffffffffffffff161415610f10576040517f08c379a000000000000000000000000000000000000000000000000000000000815260206004820152602160248201527f4552433732313a20617070726f76616c20746f2063757272656e74206f776e6560448201527f72000000000000000000000000000000000000000000000000000000000000006064820152608401610b80565b3373ffffffffffffffffffffffffffffffffffffffff82161480610f395750610f398133610a12565b610fc5576040517f08c379a000000000000000000000000000000000000000000000000000000000815260206004820152603860248201527f4552433732313a20617070726f76652063616c6c6572206973206e6f74206f7760448201527f6e6572206e6f7220617070726f76656420666f7220616c6c00000000000000006064820152608401610b80565b610fcf8383612dfa565b505050565b60115473ffffffffffffffffffffffffffffffffffffffff163314611055576040517f08c379a000000000000000000000000000000000000000000000000000000000815260206004820181905260248201527f4f776e61626c653a2063616c6c6572206973206e6f7420746865206f776e65726044820152606401610b80565b601880547fffffffffffffffffffffffffffffffffffffffffffffffffffffffffffff00ff16610100179055565b73ffffffffffffffffffffffffffffffffffffffff81166000908152600c6020526040902054611135576040517f08c379a000000000000000000000000000000000000000000000000000000000815260206004820152602660248201527f5061796d656e7453706c69747465723a206163636f756e7420686173206e6f2060448201527f73686172657300000000000000000000000000000000000000000000000000006064820152608401610b80565b6000611140600b5490565b61114a9047614d0c565b90506000611184838361117f8673ffffffffffffffffffffffffffffffffffffffff166000908152600d602052604090205490565b612e9a565b905080611213576040517f08c379a000000000000000000000000000000000000000000000000000000000815260206004820152602b60248201527f5061796d656e7453706c69747465723a206163636f756e74206973206e6f742060448201527f647565207061796d656e740000000000000000000000000000000000000000006064820152608401610b80565b73ffffffffffffffffffffffffffffffffffffffff83166000908152600d602052604081208054839290611248908490614d0c565b9250508190555080600b60008282546112619190614d0c565b9091555061127190508382612eed565b6040805173ffffffffffffffffffffffffffffffffffffffff85168152602081018390527fdf20fd1e76bc69d672e4814fafb2c449bba3a5369d8359adf9e05e6fde87b056910160405180910390a1505050565b60115473ffffffffffffffffffffffffffffffffffffffff163314611346576040517f08c379a000000000000000000000000000000000000000000000000000000000815260206004820181905260248201527f4f776e61626c653a2063616c6c6572206973206e6f7420746865206f776e65726044820152606401610b80565b60408051808201825242808252621a5e0060209283018190526019829055601a8190558351828152928301819052909290917f07a1cedf4c1c75b37d60d4517d84a69a3d2ec0534f3a5093c93a94dde3a6a554910160405180910390a1601880547fffffffffffffffffffffffffffffffffffffffffffffffffffffffffffff00ff166102001790556040517f0a97a4ee45751e2abf3e4fc8946939630b11b371ea8ae39ccdc3056e98f5cc3f9061140390600190600290614d24565b60405180910390a15050565b6114193382613047565b6114a5576040517f08c379a000000000000000000000000000000000000000000000000000000000815260206004820152603160248201527f4552433732313a207472616e736665722063616c6c6572206973206e6f74206f60448201527f776e6572206e6f7220617070726f7665640000000000000000000000000000006064820152608401610b80565b610fcf8383836131b6565b60006114bb83611aeb565b8210611549576040517f08c379a000000000000000000000000000000000000000000000000000000000815260206004820152602b60248201527f455243373231456e756d657261626c653a206f776e657220696e646578206f7560448201527f74206f6620626f756e64730000000000000000000000000000000000000000006064820152608401610b80565b5073ffffffffffffffffffffffffffffffffffffffff919091166000908152600660209081526040808320938352929052205490565b610fcf83838360405180602001604052806000815250612882565b73ffffffffffffffffffffffffffffffffffffffff81166000908152600c602052604090205461164c576040517f08c379a000000000000000000000000000000000000000000000000000000000815260206004820152602660248201527f5061796d656e7453706c69747465723a206163636f756e7420686173206e6f2060448201527f73686172657300000000000000000000000000000000000000000000000000006064820152608401610b80565b73ffffffffffffffffffffffffffffffffffffffff82166000908152600f60205260408120546040517f70a0823100000000000000000000000000000000000000000000000000000000815230600482015273ffffffffffffffffffffffffffffffffffffffff8516906370a082319060240160206040518083038186803b1580156116d757600080fd5b505afa1580156116eb573d6000803e3d6000fd5b505050506040513d601f19601f8201168201806040525081019061170f9190614d3f565b6117199190614d0c565b9050600061175f838361117f878773ffffffffffffffffffffffffffffffffffffffff918216600090815260106020908152604080832093909416825291909152205490565b9050806117ee576040517f08c379a000000000000000000000000000000000000000000000000000000000815260206004820152602b60248201527f5061796d656e7453706c69747465723a206163636f756e74206973206e6f742060448201527f647565207061796d656e740000000000000000000000000000000000000000006064820152608401610b80565b73ffffffffffffffffffffffffffffffffffffffff808516600090815260106020908152604080832093871683529290529081208054839290611832908490614d0c565b909155505073ffffffffffffffffffffffffffffffffffffffff84166000908152600f60205260408120805483929061186c908490614d0c565b9091555061187d9050848483613428565b6040805173ffffffffffffffffffffffffffffffffffffffff8581168252602082018490528616917f3be5b7a71e84ed12875d241991c70855ac5817d847039e17a9d895c1ceb0f18a910160405180910390a250505050565b60006118e160085490565b821061196f576040517f08c379a000000000000000000000000000000000000000000000000000000000815260206004820152602c60248201527f455243373231456e756d657261626c653a20676c6f62616c20696e646578206f60448201527f7574206f6620626f756e647300000000000000000000000000000000000000006064820152608401610b80565b6008828154811061198257611982614d58565b90600052602060002001549050919050565b60115473ffffffffffffffffffffffffffffffffffffffff163314611a15576040517f08c379a000000000000000000000000000000000000000000000000000000000815260206004820181905260248201527f4f776e61626c653a2063616c6c6572206973206e6f7420746865206f776e65726044820152606401610b80565b8051611a28906016906020840190614768565b5050565b60008181526002602052604081205473ffffffffffffffffffffffffffffffffffffffff1680610afd576040517f08c379a000000000000000000000000000000000000000000000000000000000815260206004820152602960248201527f4552433732313a206f776e657220717565727920666f72206e6f6e657869737460448201527f656e7420746f6b656e00000000000000000000000000000000000000000000006064820152608401610b80565b60168054610dc690614c8f565b600073ffffffffffffffffffffffffffffffffffffffff8216611b90576040517f08c379a000000000000000000000000000000000000000000000000000000000815260206004820152602a60248201527f4552433732313a2062616c616e636520717565727920666f7220746865207a6560448201527f726f2061646472657373000000000000000000000000000000000000000000006064820152608401610b80565b5073ffffffffffffffffffffffffffffffffffffffff1660009081526003602052604090205490565b60115473ffffffffffffffffffffffffffffffffffffffff163314611c3a576040517f08c379a000000000000000000000000000000000000000000000000000000000815260206004820181905260248201527f4f776e61626c653a2063616c6c6572206973206e6f7420746865206f776e65726044820152606401610b80565b611c4460006134b5565b565b60026012541415611cb3576040517f08c379a000000000000000000000000000000000000000000000000000000000815260206004820152601f60248201527f5265656e7472616e637947756172643a207265656e7472616e742063616c6c006044820152606401610b80565b6002601255660aa87bee5380006001601854610100900460ff166004811115611cde57611cde614b5b565b14611d6b576040517f08c379a000000000000000000000000000000000000000000000000000000000815260206004820152602b60248201527f507444656d6f44696e6f736175723a2050726573616c65206973206e6f74207360448201527f74617274656420796574210000000000000000000000000000000000000000006064820152608401610b80565b336000908152601c6020526040902054600111611e0a576040517f08c379a000000000000000000000000000000000000000000000000000000000815260206004820152602f60248201527f507444656d6f44696e6f736175723a2050726573616c65206d696e742069732060448201527f6f6e6520746f6b656e206f6e6c792e00000000000000000000000000000000006064820152608401610b80565b83611e143361352c565b14611e7b576040517f08c379a000000000000000000000000000000000000000000000000000000000815260206004820152600f60248201527f4d4553534147455f494e56414c494400000000000000000000000000000000006044820152606401610b80565b611ebb8484848080601f01602080910402602001604051908101604052809392919081815260200183838082843760009201919091525061356e92505050565b611f21576040517f08c379a000000000000000000000000000000000000000000000000000000000815260206004820152601b60248201527f5349474e41545552455f56414c49444154494f4e5f4641494c454400000000006044820152606401610b80565b80341015611f8b576040517f08c379a000000000000000000000000000000000000000000000000000000000815260206004820152600d60248201527f494e56414c49445f5052494345000000000000000000000000000000000000006044820152606401610b80565b336000908152601c60205260408120805460019290611fab908490614d0c565b90915550611fc3905033611fbe60135490565b6135a8565b611fd1601380546001019055565b505060016012555050565b60115473ffffffffffffffffffffffffffffffffffffffff16331461205d576040517f08c379a000000000000000000000000000000000000000000000000000000000815260206004820181905260248201527f4f776e61626c653a2063616c6c6572206973206e6f7420746865206f776e65726044820152606401610b80565b600061206860085490565b9050601e6120768383614d0c565b11156120de576040517f08c379a000000000000000000000000000000000000000000000000000000000815260206004820152601e60248201527f5468652070726573616c65206973206e6f7420656e64656e64207965742100006044820152606401610b80565b60008211612148576040517f08c379a000000000000000000000000000000000000000000000000000000000815260206004820152601b60248201527f6e65656420746f206d696e74206174206c656173742031204e465400000000006044820152606401610b80565b6006826015546121589190614d0c565b11156121c0576040517f08c379a000000000000000000000000000000000000000000000000000000000815260206004820152601660248201527f6d6178204e4654206c696d6974206578636565646564000000000000000000006044820152606401610b80565b6015805460019184918291906000906121da908490614d0c565b909155508290505b818111612209576121f733611fbe8387614d0c565b8061220181614d87565b9150506121e2565b5050505050565b6000600e828154811061222557612225614d58565b60009182526020909120015473ffffffffffffffffffffffffffffffffffffffff1692915050565b606060018054610c5c90614c8f565b60408051808201909152601954808252601a5460208301526000918291612284906078614d0c565b421161229957662386f26fc10000915061231c565b80516122a6906078614d0c565b42101580156122c1575080516122bd9060f0614d0c565b4211155b156122d557661c6bf526340000915061231c565b80516122e29060f0614d0c565b421180156122fd575080516122f990610168614d0c565b4211155b1561231157661550f7dca70000915061231c565b660e35fa931a000091505b50919050565b611a283383836135c2565b60115473ffffffffffffffffffffffffffffffffffffffff1633146123ae576040517f08c379a000000000000000000000000000000000000000000000000000000000815260206004820181905260248201527f4f776e61626c653a2063616c6c6572206973206e6f7420746865206f776e65726044820152606401610b80565b601880547fffffffffffffffffffffffffffffffffffffffffffffffffffffffffffffff00166001179055565b60026012541415612448576040517f08c379a000000000000000000000000000000000000000000000000000000000815260206004820152601f60248201527f5265656e7472616e637947756172643a207265656e7472616e742063616c6c006044820152606401610b80565b6002601255600061245860085490565b9050600061246461225c565b90506003601854610100900460ff16600481111561248457612484614b5b565b14156124ec576040517f08c379a000000000000000000000000000000000000000000000000000000000815260206004820152601960248201527f507444656d6f44696e6f736175723a20534f4c44204f555421000000000000006044820152606401610b80565b6002601854610100900460ff16600481111561250a5761250a614b5b565b14612597576040517f08c379a000000000000000000000000000000000000000000000000000000000815260206004820152602e60248201527f707444656d6f44696e6f736175723a207075626c69632073616c65206973206e60448201527f6f742073746172746564207965740000000000000000000000000000000000006064820152608401610b80565b6125a18382614dc0565b341015612630576040517f08c379a000000000000000000000000000000000000000000000000000000000815260206004820152602160248201527f507444656d6f44696e6f736175723a20496e737566696369656e742066756e6460448201527f73000000000000000000000000000000000000000000000000000000000000006064820152608401610b80565b60058311156126c1576040517f08c379a000000000000000000000000000000000000000000000000000000000815260206004820152603b60248201527f507444656d6f44696e6f736175723a20596f752063616e206f6e6c79206d696e60448201527f7420757020746f206669766520746f6b656e206174206f6e63652100000000006064820152608401610b80565b336000908152601c6020526040902054600a906126df908590614d0c565b111561276d576040517f08c379a000000000000000000000000000000000000000000000000000000000815260206004820152603360248201527f507444656d6f44696e6f736175723a20596f752063616e2774206d696e74206d60448201527f6f7265207468616e20313020746f6b656e7321000000000000000000000000006064820152608401610b80565b601e6127798484614d0c565b11156127e1576040517f08c379a000000000000000000000000000000000000000000000000000000000815260206004820152601f60248201527f507444656d6f44696e6f736175723a204d696e7420746f6f206c6172676521006044820152606401610b80565b336000908152601c60205260408120805460019286928392909190612807908490614d0c565b90915550601e90506128198686614d0c565b141561284c57601880547fffffffffffffffffffffffffffffffffffffffffffffffffffffffffffff00ff166103001790555b815b8181116128755761286333611fbe8388614d0c565b8061286d81614d87565b91505061284e565b5050600160125550505050565b61288c3383613047565b612918576040517f08c379a000000000000000000000000000000000000000000000000000000000815260206004820152603160248201527f4552433732313a207472616e736665722063616c6c6572206973206e6f74206f60448201527f776e6572206e6f7220617070726f7665640000000000000000000000000000006064820152608401610b80565b612924848484846136f0565b50505050565b60185460609060ff166129c9576017805461294490614c8f565b80601f016020809104026020016040519081016040528092919081815260200182805461297090614c8f565b80156129bd5780601f10612992576101008083540402835291602001916129bd565b820191906000526020600020905b8154815290600101906020018083116129a057829003601f168201915b50505050509050919050565b6000601680546129d890614c8f565b80601f0160208091040260200160405190810160405280929190818152602001828054612a0490614c8f565b8015612a515780601f10612a2657610100808354040283529160200191612a51565b820191906000526020600020905b815481529060010190602001808311612a3457829003601f168201915b505050505090506000815111612a765760405180602001604052806000815250612aa1565b80612a8084613793565b604051602001612a91929190614dfd565b6040516020818303038152906040525b9392505050565b60115473ffffffffffffffffffffffffffffffffffffffff163314612b29576040517f08c379a000000000000000000000000000000000000000000000000000000000815260206004820181905260248201527f4f776e61626c653a2063616c6c6572206973206e6f7420746865206f776e65726044820152606401610b80565b601880547fffffffffffffffffffffffffffffffffffffffffffffffffffffffffffffff00169055565b60115473ffffffffffffffffffffffffffffffffffffffff163314612bd4576040517f08c379a000000000000000000000000000000000000000000000000000000000815260206004820181905260248201527f4f776e61626c653a2063616c6c6572206973206e6f7420746865206f776e65726044820152606401610b80565b8051611a28906017906020840190614768565b60115473ffffffffffffffffffffffffffffffffffffffff163314612c68576040517f08c379a000000000000000000000000000000000000000000000000000000000815260206004820181905260248201527f4f776e61626c653a2063616c6c6572206973206e6f7420746865206f776e65726044820152606401610b80565b73ffffffffffffffffffffffffffffffffffffffff8116612d0b576040517f08c379a000000000000000000000000000000000000000000000000000000000815260206004820152602660248201527f4f776e61626c653a206e6577206f776e657220697320746865207a65726f206160448201527f64647265737300000000000000000000000000000000000000000000000000006064820152608401610b80565b612d14816134b5565b50565b60007fffffffff0000000000000000000000000000000000000000000000000000000082167f80ac58cd000000000000000000000000000000000000000000000000000000001480612daa57507fffffffff0000000000000000000000000000000000000000000000000000000082167f5b5e139f00000000000000000000000000000000000000000000000000000000145b80610afd57507f01ffc9a7000000000000000000000000000000000000000000000000000000007fffffffff00000000000000000000000000000000000000000000000000000000831614610afd565b600081815260046020526040902080547fffffffffffffffffffffffff00000000000000000000000000000000000000001673ffffffffffffffffffffffffffffffffffffffff84169081179091558190612e5482611a2c565b73ffffffffffffffffffffffffffffffffffffffff167f8c5be1e5ebec7d5bd14f71427d1e84f3dd0314c0f7b2291e5b200ac8c7c3b92560405160405180910390a45050565b600a5473ffffffffffffffffffffffffffffffffffffffff84166000908152600c602052604081205490918391612ed19086614dc0565b612edb9190614e83565b612ee59190614e97565b949350505050565b80471015612f57576040517f08c379a000000000000000000000000000000000000000000000000000000000815260206004820152601d60248201527f416464726573733a20696e73756666696369656e742062616c616e63650000006044820152606401610b80565b60008273ffffffffffffffffffffffffffffffffffffffff168260405160006040518083038185875af1925050503d8060008114612fb1576040519150601f19603f3d011682016040523d82523d6000602084013e612fb6565b606091505b5050905080610fcf576040517f08c379a000000000000000000000000000000000000000000000000000000000815260206004820152603a60248201527f416464726573733a20756e61626c6520746f2073656e642076616c75652c207260448201527f6563697069656e74206d617920686176652072657665727465640000000000006064820152608401610b80565b60008181526002602052604081205473ffffffffffffffffffffffffffffffffffffffff166130f8576040517f08c379a000000000000000000000000000000000000000000000000000000000815260206004820152602c60248201527f4552433732313a206f70657261746f7220717565727920666f72206e6f6e657860448201527f697374656e7420746f6b656e00000000000000000000000000000000000000006064820152608401610b80565b600061310383611a2c565b90508073ffffffffffffffffffffffffffffffffffffffff168473ffffffffffffffffffffffffffffffffffffffff16148061317257508373ffffffffffffffffffffffffffffffffffffffff1661315a84610cdf565b73ffffffffffffffffffffffffffffffffffffffff16145b80612ee5575073ffffffffffffffffffffffffffffffffffffffff80821660009081526005602090815260408083209388168352929052205460ff16949350505050565b8273ffffffffffffffffffffffffffffffffffffffff166131d682611a2c565b73ffffffffffffffffffffffffffffffffffffffff1614613279576040517f08c379a000000000000000000000000000000000000000000000000000000000815260206004820152602960248201527f4552433732313a207472616e73666572206f6620746f6b656e2074686174206960448201527f73206e6f74206f776e00000000000000000000000000000000000000000000006064820152608401610b80565b73ffffffffffffffffffffffffffffffffffffffff821661331b576040517f08c379a0000000000000000000000000000000000000000000000000000000008152602060048201526024808201527f4552433732313a207472616e7366657220746f20746865207a65726f2061646460448201527f72657373000000000000000000000000000000000000000000000000000000006064820152608401610b80565b6133268383836138c5565b613331600082612dfa565b73ffffffffffffffffffffffffffffffffffffffff83166000908152600360205260408120805460019290613367908490614e97565b909155505073ffffffffffffffffffffffffffffffffffffffff821660009081526003602052604081208054600192906133a2908490614d0c565b909155505060008181526002602052604080822080547fffffffffffffffffffffffff00000000000000000000000000000000000000001673ffffffffffffffffffffffffffffffffffffffff86811691821790925591518493918716917fddf252ad1be2c89b69c2b068fc378daa952ba7f163c4a11628f55a4df523b3ef91a4505050565b6040805173ffffffffffffffffffffffffffffffffffffffff8416602482015260448082018490528251808303909101815260649091019091526020810180517bffffffffffffffffffffffffffffffffffffffffffffffffffffffff167fa9059cbb00000000000000000000000000000000000000000000000000000000179052610fcf9084906139cb565b6011805473ffffffffffffffffffffffffffffffffffffffff8381167fffffffffffffffffffffffff0000000000000000000000000000000000000000831681179093556040519116919082907f8be0079c531659141344cd1fd0a4f28419497f9722a3daafe3b4186f6b6457e090600090a35050565b6040805173ffffffffffffffffffffffffffffffffffffffff83166020820152600091015b604051602081830303815290604052805190602001209050919050565b60006135838261357d85613ad7565b90613b12565b60145473ffffffffffffffffffffffffffffffffffffffff9182169116149392505050565b611a28828260405180602001604052806000815250613b36565b8173ffffffffffffffffffffffffffffffffffffffff168373ffffffffffffffffffffffffffffffffffffffff161415613658576040517f08c379a000000000000000000000000000000000000000000000000000000000815260206004820152601960248201527f4552433732313a20617070726f766520746f2063616c6c6572000000000000006044820152606401610b80565b73ffffffffffffffffffffffffffffffffffffffff83811660008181526005602090815260408083209487168084529482529182902080547fffffffffffffffffffffffffffffffffffffffffffffffffffffffffffffff001686151590811790915591519182527f17307eab39ab6107e8899845ad3d59bd9653f200f220920489ca2b5937696c31910160405180910390a3505050565b6136fb8484846131b6565b61370784848484613bd9565b612924576040517f08c379a000000000000000000000000000000000000000000000000000000000815260206004820152603260248201527f4552433732313a207472616e7366657220746f206e6f6e20455243373231526560448201527f63656976657220696d706c656d656e74657200000000000000000000000000006064820152608401610b80565b6060816137d357505060408051808201909152600181527f3000000000000000000000000000000000000000000000000000000000000000602082015290565b8160005b81156137fd57806137e781614d87565b91506137f69050600a83614e83565b91506137d7565b60008167ffffffffffffffff811115613818576138186149d3565b6040519080825280601f01601f191660200182016040528015613842576020820181803683370190505b5090505b8415612ee557613857600183614e97565b9150613864600a86614eae565b61386f906030614d0c565b60f81b81838151811061388457613884614d58565b60200101907effffffffffffffffffffffffffffffffffffffffffffffffffffffffffffff1916908160001a9053506138be600a86614e83565b9450613846565b73ffffffffffffffffffffffffffffffffffffffff831661392d5761392881600880546000838152600960205260408120829055600182018355919091527ff3f7a9fe364faab93b216da50a3214154f22a0a2b415b23a84c8169e8b636ee30155565b61396a565b8173ffffffffffffffffffffffffffffffffffffffff168373ffffffffffffffffffffffffffffffffffffffff161461396a5761396a8382613dd8565b73ffffffffffffffffffffffffffffffffffffffff821661398e57610fcf81613e8f565b8273ffffffffffffffffffffffffffffffffffffffff168273ffffffffffffffffffffffffffffffffffffffff1614610fcf57610fcf8282613f3e565b6000613a2d826040518060400160405280602081526020017f5361666545524332303a206c6f772d6c6576656c2063616c6c206661696c65648152508573ffffffffffffffffffffffffffffffffffffffff16613f8f9092919063ffffffff16565b805190915015610fcf5780806020019051810190613a4b9190614ec2565b610fcf576040517f08c379a000000000000000000000000000000000000000000000000000000000815260206004820152602a60248201527f5361666545524332303a204552433230206f7065726174696f6e20646964206e60448201527f6f742073756363656564000000000000000000000000000000000000000000006064820152608401610b80565b6040517f19457468657265756d205369676e6564204d6573736167653a0a3332000000006020820152603c8101829052600090605c01613551565b6000806000613b218585613f9e565b91509150613b2e8161400e565b509392505050565b613b408383614267565b613b4d6000848484613bd9565b610fcf576040517f08c379a000000000000000000000000000000000000000000000000000000000815260206004820152603260248201527f4552433732313a207472616e7366657220746f206e6f6e20455243373231526560448201527f63656976657220696d706c656d656e74657200000000000000000000000000006064820152608401610b80565b600073ffffffffffffffffffffffffffffffffffffffff84163b15613dcd576040517f150b7a0200000000000000000000000000000000000000000000000000000000815273ffffffffffffffffffffffffffffffffffffffff85169063150b7a0290613c50903390899088908890600401614edf565b602060405180830381600087803b158015613c6a57600080fd5b505af1925050508015613cb8575060408051601f3d9081017fffffffffffffffffffffffffffffffffffffffffffffffffffffffffffffffe0168201909252613cb591810190614f28565b60015b613d82573d808015613ce6576040519150601f19603f3d011682016040523d82523d6000602084013e613ceb565b606091505b508051613d7a576040517f08c379a000000000000000000000000000000000000000000000000000000000815260206004820152603260248201527f4552433732313a207472616e7366657220746f206e6f6e20455243373231526560448201527f63656976657220696d706c656d656e74657200000000000000000000000000006064820152608401610b80565b805181602001fd5b7fffffffff00000000000000000000000000000000000000000000000000000000167f150b7a0200000000000000000000000000000000000000000000000000000000149050612ee5565b506001949350505050565b60006001613de584611aeb565b613def9190614e97565b600083815260076020526040902054909150808214613e4f5773ffffffffffffffffffffffffffffffffffffffff841660009081526006602090815260408083208584528252808320548484528184208190558352600790915290208190555b50600091825260076020908152604080842084905573ffffffffffffffffffffffffffffffffffffffff9094168352600681528383209183525290812055565b600854600090613ea190600190614e97565b60008381526009602052604081205460088054939450909284908110613ec957613ec9614d58565b906000526020600020015490508060088381548110613eea57613eea614d58565b6000918252602080832090910192909255828152600990915260408082208490558582528120556008805480613f2257613f22614f45565b6001900381819060005260206000200160009055905550505050565b6000613f4983611aeb565b73ffffffffffffffffffffffffffffffffffffffff9093166000908152600660209081526040808320868452825280832085905593825260079052919091209190915550565b6060612ee58484600085614435565b600080825160411415613fd55760208301516040840151606085015160001a613fc9878285856145b5565b94509450505050614007565b825160401415613fff5760208301516040840151613ff48683836146cd565b935093505050614007565b506000905060025b9250929050565b600081600481111561402257614022614b5b565b141561402b5750565b600181600481111561403f5761403f614b5b565b14156140a7576040517f08c379a000000000000000000000000000000000000000000000000000000000815260206004820152601860248201527f45434453413a20696e76616c6964207369676e617475726500000000000000006044820152606401610b80565b60028160048111156140bb576140bb614b5b565b1415614123576040517f08c379a000000000000000000000000000000000000000000000000000000000815260206004820152601f60248201527f45434453413a20696e76616c6964207369676e6174757265206c656e677468006044820152606401610b80565b600381600481111561413757614137614b5b565b14156141c5576040517f08c379a000000000000000000000000000000000000000000000000000000000815260206004820152602260248201527f45434453413a20696e76616c6964207369676e6174757265202773272076616c60448201527f75650000000000000000000000000000000000000000000000000000000000006064820152608401610b80565b60048160048111156141d9576141d9614b5b565b1415612d14576040517f08c379a000000000000000000000000000000000000000000000000000000000815260206004820152602260248201527f45434453413a20696e76616c6964207369676e6174757265202776272076616c60448201527f75650000000000000000000000000000000000000000000000000000000000006064820152608401610b80565b73ffffffffffffffffffffffffffffffffffffffff82166142e4576040517f08c379a000000000000000000000000000000000000000000000000000000000815260206004820181905260248201527f4552433732313a206d696e7420746f20746865207a65726f20616464726573736044820152606401610b80565b60008181526002602052604090205473ffffffffffffffffffffffffffffffffffffffff1615614370576040517f08c379a000000000000000000000000000000000000000000000000000000000815260206004820152601c60248201527f4552433732313a20746f6b656e20616c7265616479206d696e746564000000006044820152606401610b80565b61437c600083836138c5565b73ffffffffffffffffffffffffffffffffffffffff821660009081526003602052604081208054600192906143b2908490614d0c565b909155505060008181526002602052604080822080547fffffffffffffffffffffffff00000000000000000000000000000000000000001673ffffffffffffffffffffffffffffffffffffffff861690811790915590518392907fddf252ad1be2c89b69c2b068fc378daa952ba7f163c4a11628f55a4df523b3ef908290a45050565b6060824710156144c7576040517f08c379a000000000000000000000000000000000000000000000000000000000815260206004820152602660248201527f416464726573733a20696e73756666696369656e742062616c616e636520666f60448201527f722063616c6c00000000000000000000000000000000000000000000000000006064820152608401610b80565b843b61452f576040517f08c379a000000000000000000000000000000000000000000000000000000000815260206004820152601d60248201527f416464726573733a2063616c6c20746f206e6f6e2d636f6e74726163740000006044820152606401610b80565b6000808673ffffffffffffffffffffffffffffffffffffffff1685876040516145589190614f74565b60006040518083038185875af1925050503d8060008114614595576040519150601f19603f3d011682016040523d82523d6000602084013e61459a565b606091505b50915091506145aa828286614715565b979650505050505050565b6000807f7fffffffffffffffffffffffffffffff5d576e7357a4501ddfe92f46681b20a08311156145ec57506000905060036146c4565b8460ff16601b1415801561460457508460ff16601c14155b1561461557506000905060046146c4565b6040805160008082526020820180845289905260ff881692820192909252606081018690526080810185905260019060a0016020604051602081039080840390855afa158015614669573d6000803e3d6000fd5b50506040517fffffffffffffffffffffffffffffffffffffffffffffffffffffffffffffffe0015191505073ffffffffffffffffffffffffffffffffffffffff81166146bd576000600192509250506146c4565b9150600090505b94509492505050565b6000807f7fffffffffffffffffffffffffffffffffffffffffffffffffffffffffffffff831660ff84901c601b01614707878288856145b5565b935093505050935093915050565b60608315614724575081612aa1565b8251156147345782518084602001fd5b816040517f08c379a0000000000000000000000000000000000000000000000000000000008152600401610b809190614901565b82805461477490614c8f565b90600052602060002090601f01602090048101928261479657600085556147dc565b82601f106147af57805160ff19168380011785556147dc565b828001600101855582156147dc579182015b828111156147dc5782518255916020019190600101906147c1565b506147e89291506147ec565b5090565b5b808211156147e857600081556001016147ed565b7fffffffff0000000000000000000000000000000000000000000000000000000081168114612d1457600080fd5b60006020828403121561484157600080fd5b8135612aa181614801565b73ffffffffffffffffffffffffffffffffffffffff81168114612d1457600080fd5b60006020828403121561488057600080fd5b8135612aa18161484c565b60005b838110156148a657818101518382015260200161488e565b838111156129245750506000910152565b600081518084526148cf81602086016020860161488b565b601f017fffffffffffffffffffffffffffffffffffffffffffffffffffffffffffffffe0169290920160200192915050565b602081526000612aa160208301846148b7565b60006020828403121561492657600080fd5b5035919050565b6000806040838503121561494057600080fd5b823561494b8161484c565b946020939093013593505050565b60008060006060848603121561496e57600080fd5b83356149798161484c565b925060208401356149898161484c565b929592945050506040919091013590565b600080604083850312156149ad57600080fd5b82356149b88161484c565b915060208301356149c88161484c565b809150509250929050565b7f4e487b7100000000000000000000000000000000000000000000000000000000600052604160045260246000fd5b600067ffffffffffffffff80841115614a1d57614a1d6149d3565b604051601f85017fffffffffffffffffffffffffffffffffffffffffffffffffffffffffffffffe0908116603f01168101908282118183101715614a6357614a636149d3565b81604052809350858152868686011115614a7c57600080fd5b858560208301376000602087830101525050509392505050565b600060208284031215614aa857600080fd5b813567ffffffffffffffff811115614abf57600080fd5b8201601f81018413614ad057600080fd5b612ee584823560208401614a02565b600080600060408486031215614af457600080fd5b83359250602084013567ffffffffffffffff80821115614b1357600080fd5b818601915086601f830112614b2757600080fd5b813581811115614b3657600080fd5b876020828501011115614b4857600080fd5b6020830194508093505050509250925092565b7f4e487b7100000000000000000000000000000000000000000000000000000000600052602160045260246000fd5b60058110614bc1577f4e487b7100000000000000000000000000000000000000000000000000000000600052602160045260246000fd5b9052565b60208101610afd8284614b8a565b8015158114612d1457600080fd5b60008060408385031215614bf457600080fd5b8235614bff8161484c565b915060208301356149c881614bd3565b60008060008060808587031215614c2557600080fd5b8435614c308161484c565b93506020850135614c408161484c565b925060408501359150606085013567ffffffffffffffff811115614c6357600080fd5b8501601f81018713614c7457600080fd5b614c8387823560208401614a02565b91505092959194509250565b600181811c90821680614ca357607f821691505b6020821081141561231c577f4e487b7100000000000000000000000000000000000000000000000000000000600052602260045260246000fd5b7f4e487b7100000000000000000000000000000000000000000000000000000000600052601160045260246000fd5b60008219821115614d1f57614d1f614cdd565b500190565b60408101614d328285614b8a565b612aa16020830184614b8a565b600060208284031215614d5157600080fd5b5051919050565b7f4e487b7100000000000000000000000000000000000000000000000000000000600052603260045260246000fd5b60007fffffffffffffffffffffffffffffffffffffffffffffffffffffffffffffffff821415614db957614db9614cdd565b5060010190565b6000817fffffffffffffffffffffffffffffffffffffffffffffffffffffffffffffffff0483118215151615614df857614df8614cdd565b500290565b60008351614e0f81846020880161488b565b835190830190614e2381836020880161488b565b7f2e6a736f6e0000000000000000000000000000000000000000000000000000009101908152600501949350505050565b7f4e487b7100000000000000000000000000000000000000000000000000000000600052601260045260246000fd5b600082614e9257614e92614e54565b500490565b600082821015614ea957614ea9614cdd565b500390565b600082614ebd57614ebd614e54565b500690565b600060208284031215614ed457600080fd5b8151612aa181614bd3565b600073ffffffffffffffffffffffffffffffffffffffff808716835280861660208401525083604083015260806060830152614f1e60808301846148b7565b9695505050505050565b600060208284031215614f3a57600080fd5b8151612aa181614801565b7f4e487b7100000000000000000000000000000000000000000000000000000000600052603160045260246000fd5b60008251614f8681846020870161488b565b919091019291505056fea26469706673582212207df5f0df6ad6092bf152dda497e38a96ea7c24ba590016dcb3b5ab6fe7713d3c64736f6c634300080900334f776e61626c653a2063616c6c6572206973206e6f7420746865206f776e6572",
  "linkReferences": {},
  "deployedLinkReferences": {}
}